:10000000F5C0000021C100001FC100001DC100009B
:100010001BC1000019C1000017C1000015C100007C
:1000200013C1000011C100000FC100000DC100008C
:100030000BC1000009C1000007C1000005C100009C
:1000400003C1000001C10000FFC00000FDC00000AE
:10005000FBC00000F9C00000F7C0000067C400004A
:10006000F3C000002DC4000002C40000EDC0000079
:10007000EBC00000E9C00000E7C00000E5C00000E0
:10008000E3C00000E1C00000DFC00000DDC00000F0
:10009000DBC00000D9C00000D7C00000D5C0000000
:1000A000D3C00000D1C00000CFC00000CDC0000010
:1000B000CBC00000C9C00000C7C00000C5C0000020
:1000C000C3C00000C1C00000BFC00000BDC0000030
:1000D000BBC00000B9C00000B7C00000B5C0000040
:1000E000B3C0000000000A0B02090C0D0E08070344
:1000F00004010000000000000000000000000000FB
:1001000000000000000000000000000000000000EF
:1001100012111000000000000000000000000000AC
:100120000000000000000000000000002200250088
:1001300028002B002E0031003400020100000501D0
:1001400008010B0100002100240027002A002D00D7
:100150003000330001010000040107010A01050518
:100160000505070508080808020202020A0A08082D
:10017000040404040101010101010101030303035B
:1001800003030303040707070C0C0C0C0C0C0C0CEA
:100190000202020206060606060606060B0B0B0BFB
:1001A0000B0B0B0B01021020200808102040102020
:1001B000408002010201080402010102040810202B
:1001C0004080804020100804020180040201804029
:1001D0002010080402010804020101020408102092
:1001E00040800102040810204080FD0511241FBE3C
:1001F000CFEFD1E2DEBFCDBF00E00CBF12E0A0E048
:10020000B2E0E8E6FCE000E00BBF02C007900D9210
:10021000A237B107D9F723E0A2E7B2E001C01D92EF
:10022000A831B207E1F710E0C6EFD0E000E005C06A
:1002300021970109802FFE010DD5C53FD10780E030
:100240000807B1F7BDD30EC5DBCE90E0FC01EC553D
:10025000FE4F2491825A9E4FFC018491882399F08D
:1002600090E0880F991FFC01EC5BFE4FA591B491C3
:10027000FC01E65DFE4F859194918FB7F894EC9167
:10028000E22BEC938FBF0895AF92BF92CF92DF9293
:10029000EF92FF920F931F93CF93DF936C017B013B
:1002A0008B01040F151FEB015E01AE18BF08C017CC
:1002B000D10759F06991D601ED91FC910190F0813F
:1002C000E02DC6011995892B79F7C501DF91CF91F2
:1002D0001F910F91FF90EF90DF90CF90BF90AF9064
:1002E0000895FC01538D448D252F30E0842F90E03C
:1002F000821B930B541710F0CF9608950197089521
:10030000FC01918D828D981761F0A28DAE0FBF2FE9
:10031000B11D5D968C91928D9F5F9F73928F90E03F
:1003200008958FEF9FEF0895FC01918D828D9817AE
:1003300031F0828DE80FF11D858D90E008958FEFEB
:100340009FEF0895FC01918D228D892F90E0805CB4
:100350009F4F821B91098F73992708958BE792E035
:10036000F1DF21E0892B09F420E0822F0895FC01C0
:10037000A48DA80FB92FB11DA35ABF4F2C91848D06
:1003800090E001968F739927848FA689B7892C9363
:10039000A089B1898C91837080648C93938D848DB6
:1003A000981306C00288F389E02D80818F7D8083B9
:1003B0000895EF92FF920F931F93CF93DF93EC0179
:1003C00081E0888F9B8D8C8D98131AC0E889F989FC
:1003D000808185FF15C09FB7F894EE89FF896083FF
:1003E000E889F98980818370806480839FBF81E080
:1003F00090E0DF91CF911F910F91FF90EF900895C2
:10040000F62E0B8D10E00F5F1F4F0F731127E02E9C
:100410008C8D8E110BC00FB607FCFACFE889F989D5
:10042000808185FFF5CFCE01A2DFF2CFEB8DEC0FFF
:10043000FD2FF11DE35AFF4FF0829FB7F8940B8F09
:10044000EA89FB8980818062D0CFCF93DF93EC0172
:10045000888D8823B1F0AA89BB89E889F9898C91B4
:1004600085FD03C0808186FD0CC00FB607FCF7CF69
:100470008C9185FFF2CF808185FFEDCFCE0177DFB4
:10048000EACFDF91CF91089580E090E0892B21F0B1
:1004900065DF81110E94000080E090E0892B49F027
:1004A00080E090E0892B29F00E94000081110E94D9
:1004B000000080E090E0892B49F080E090E0892BFB
:1004C00029F00E94000081110E94000080E090E06D
:1004D000892B49F080E090E0892B29F00E940000F0
:1004E00081110C9400000895282F30E0F901EC519F
:1004F000FF4F9491F901EC55FE4F4491225A3E4F23
:10050000F9012491222309F434C0992309F191506F
:100510009231F0F4E92FF0E08827EF56FD4F8F4F2E
:1005200099C3C202C602A302BA02BE02A802C9024D
:10053000CF02D302D902DD02E102E702EB02A802F8
:10054000EF02F502F902809180008F77809380009E
:10055000E22FF0E0EE0FFF1FE65DFE4FA591B49194
:100560008FB7F894EC91611148C040954E234C939D
:100570008FBF0895809180008F7DE8CF80918000AB
:10058000877FE4CF84B58F7784BDE2CF84B58F7D3C
:10059000FBCF8091B0008F778093B000D9CF80914E
:1005A000B0008F7DF9CF809190008F77809390007D
:1005B000CFCF809190008F7DF9CF80919000877F81
:1005C000F5CF8091A0008F778093A000C1CF80915C
:1005D000A0008F7DF9CF8091A000877FF5CF80911B
:1005E00020018F7780932001B3CF809120018F7DF0
:1005F000F9CF80912001877FF5CF4E2BB8CF1F9385
:10060000CF93DF93182FEB0120DE209731F460E0C9
:10061000812FDF91CF911F9167CFCF3FD10511F48B
:1006200061E0F6CFE12FF0E0EC51FF4FE491E150B3
:10063000E23108F0B2C0F0E08827EF5DFC4F8F4F49
:1006400009C333033B0340034A035403CD035E0352
:1006500066036E03780382038C039B03A503CD031B
:10066000AF03B903C30384B5806884BDC7BDDF9100
:10067000CF911F91089584B5806284BDC8BDF7CF26
:1006800080918000806880938000D0938900C0931F
:100690008800EDCF80918000806280938000D093AD
:1006A0008B00C0938A00E3CF8091800088608093A4
:1006B0008000D0938D00C0938C00D9CF8091B00082
:1006C00080688093B000C093B300D1CF8091B00018
:1006D00080628093B000C093B400C9CF8091900035
:1006E000806880939000D0939900C0939800BFCF0A
:1006F00080919000806280939000D0939B00C09383
:100700009A00B5CF80919000886080939000D0933C
:100710009D00C0939C00ABCF8091A0008068809327
:10072000A0008091A0008F7B8093A000D093A900AF
:10073000C093A8009CCF8091A00080628093A0000D
:10074000D093AB00C093AA0092CF8091A0008860A4
:100750008093A000D093AD00C093AC0088CF80916F
:100760002001806880932001D0932901C093280143
:100770007ECF80912001806280932001D0932B0155
:10078000C0932A0174CF809120018860809320015A
:10079000D0932D01C0932C016ACFC038D1050CF045
:1007A0003FCF35CF3FB7F894809177029091780290
:1007B000A0917902B0917A0226B5A89B05C02F3F7F
:1007C00019F00196A11DB11D3FBFBA2FA92F982F77
:1007D0008827BC01CD01620F711D811D911D42E072
:1007E000660F771F881F991F4A95D1F708958F923A
:1007F0009F92AF92BF92CF92DF92EF92FF92D2DFA1
:100800004B015C0188EEC82E83E0D82EE12CF12C40
:10081000C9DF681979098A099B09683E7340810517
:100820009105B0F321E0C21AD108E108F10888EE81
:10083000880E83E0981EA11CB11CC114D104E104F0
:10084000F10431F7FF90EF90DF90CF90BF90AF9021
:100850009F908F900895FC0101900020E9F7319757
:10086000AF01481B590BBC018BE792E00DCD1F92E5
:100870000F920FB60F9211240BB60F922F933F9346
:100880004F935F936F937F938F939F93AF93BF9398
:10089000EF93FF938BE792E06ADDFF91EF91BF91B9
:1008A000AF919F918F917F916F915F914F913F9108
:1008B0002F910F900BBE0F900FBE0F901F901895A9
:1008C0001F920F920FB60F9211240BB60F922F9317
:1008D0008F939F93EF93FF93E0918B02F0918C02A3
:1008E0008081E0919102F091920282FD1DC0908181
:1008F000809194028F5F8F7320919502821741F04F
:10090000E0919402F0E0E558FD4F958F80939402BA
:10091000FF91EF919F918F912F910F900BBE0F90B0
:100920000FBE0F901F9018958081F2CF1F920F92EB
:100930000FB60F9211242F933F938F939F93AF93F2
:10094000BF938091730290917402A0917502B0914F
:1009500076023091720223E0230F2D3758F501966D
:10096000A11DB11D209372028093730290937402B3
:10097000A0937502B09376028091770290917802ED
:10098000A0917902B0917A020196A11DB11D8093C8
:10099000770290937802A0937902B0937A02BF9184
:1009A000AF919F918F913F912F910F900FBE0F901C
:1009B0001F90189526E8230F0296A11DB11DD2CFD6
:1009C000789484B5826084BD84B5816084BD85B52A
:1009D000826085BD85B5816085BD80916E00816036
:1009E00080936E00109281008091810082608093DC
:1009F00081008091810081608093810080918000DE
:100A00008160809380008091B10084608093B10008
:100A10008091B00081608093B000809191008260ED
:100A200080939100809191008160809391008091EA
:100A300090008160809390008091A10082608093FB
:100A4000A1008091A10081608093A1008091A0000D
:100A500081608093A00080912101826080932101B8
:100A6000809121018160809321018091200181602A
:100A70008093200180917A00846080937A00809135
:100A80007A00826080937A0080917A0081608093FE
:100A90007A0080917A00806880937A001092C10079
:100AA00087E0D3DB85E0D1DB86E0CFDB84E0CDDB04
:100AB000E0918B02F0918C0282E08083E0918702CA
:100AC000F09188021082E0918902F0918A028FEC05
:100AD000808310929302E0918F02F091900286E061
:100AE0008083E0918D02F0918E028081806180830D
:100AF000E0918D02F0918E02808188608083E09188
:100B00008D02F0918E02808180688083E0918D0259
:100B1000F0918E0280818F7D80838BE792E012DCE2
:100B200018161906BCF48BE792E0EADB8634A1F4D0
:100B300060E087E0D9DC64E670E086E060DD60E0DC
:100B400085E0D2DC64E670E084E059DD50DE82E1CD
:100B500092E081DE99DCE1CF823491F461E087E0BC
:100B6000C3DC64E670E086E04ADD61E085E0BCDC81
:100B700064E670E084E043DD3ADE86E292E0E9CFAD
:100B8000823591F461E087E0AFDC64E670E086E0F6
:100B900036DD60E085E0A8DC64E670E084E02FDD0F
:100BA00026DE8BE392E0D5CF8C3491F460E087E0D1
:100BB0009BDC64E670E086E022DD61E085E094DCA9
:100BC00064E670E084E01BDD12DE8DE492E0C1CFCC
:100BD000833509F0BFCF60E087E086DC70E060E03D
:100BE00086E00DDD60E085E07FDC70E060E084E0C1
:100BF00006DDFDDD8EE592E0ACCFEBE7F2E013829F
:100C0000128288EE93E0A0E0B0E084839583A6830F
:100C1000B78384E092E09183808385EC90E09587B0
:100C2000848784EC90E09787868780EC90E0918BB6
:100C3000808B81EC90E0938B828B82EC90E0958BA3
:100C4000848B86EC90E0978B868B118E128E138EA0
:100C5000148E0895EE0FFF1F881F8BBF0790F6912B
:080C6000E02D1994F894FFCF78
:100C680000000000D901440171012502A2018001A0
:100C7800940149542753204D4F56494E4720464F1B
:100C880052574152440049542753204D4F56494E1C
:100C980047204241434B574152440049542753206F
:100CA8004D4F56494E47205249474854004954270A
:100CB80053204D4F56494E47204C45465400495401
:100CC80027532053544F504544204D4F56494E47C3
:020CD80000001A
:00000001FF
